{
  "contractName": "MissionTracker",
  "abi": [
    {
      "constant": true,
      "inputs": [],
      "name": "name",
      "outputs": [
        {
          "name": "",
          "type": "string"
        }
      ],
      "payable": false,
      "stateMutability": "view",
      "type": "function"
    },
    {
      "constant": true,
      "inputs": [
        {
          "name": "_tokenId",
          "type": "uint256"
        }
      ],
      "name": "getApproved",
      "outputs": [
        {
          "name": "",
          "type": "address"
        }
      ],
      "payable": false,
      "stateMutability": "view",
      "type": "function"
    },
    {
      "constant": false,
      "inputs": [
        {
          "name": "_to",
          "type": "address"
        },
        {
          "name": "_tokenId",
          "type": "uint256"
        }
      ],
      "name": "approve",
      "outputs": [],
      "payable": false,
      "stateMutability": "nonpayable",
      "type": "function"
    },
    {
      "constant": true,
      "inputs": [],
      "name": "totalSupply",
      "outputs": [
        {
          "name": "",
          "type": "uint256"
        }
      ],
      "payable": false,
      "stateMutability": "view",
      "type": "function"
    },
    {
      "constant": false,
      "inputs": [
        {
          "name": "_from",
          "type": "address"
        },
        {
          "name": "_to",
          "type": "address"
        },
        {
          "name": "_tokenId",
          "type": "uint256"
        }
      ],
      "name": "transferFrom",
      "outputs": [],
      "payable": false,
      "stateMutability": "nonpayable",
      "type": "function"
    },
    {
      "constant": true,
      "inputs": [
        {
          "name": "_owner",
          "type": "address"
        },
        {
          "name": "_index",
          "type": "uint256"
        }
      ],
      "name": "tokenOfOwnerByIndex",
      "outputs": [
        {
          "name": "",
          "type": "uint256"
        }
      ],
      "payable": false,
      "stateMutability": "view",
      "type": "function"
    },
    {
      "constant": false,
      "inputs": [
        {
          "name": "_from",
          "type": "address"
        },
        {
          "name": "_to",
          "type": "address"
        },
        {
          "name": "_tokenId",
          "type": "uint256"
        }
      ],
      "name": "safeTransferFrom",
      "outputs": [],
      "payable": false,
      "stateMutability": "nonpayable",
      "type": "function"
    },
    {
      "constant": true,
      "inputs": [
        {
          "name": "_tokenId",
          "type": "uint256"
        }
      ],
      "name": "exists",
      "outputs": [
        {
          "name": "",
          "type": "bool"
        }
      ],
      "payable": false,
      "stateMutability": "view",
      "type": "function"
    },
    {
      "constant": true,
      "inputs": [
        {
          "name": "_index",
          "type": "uint256"
        }
      ],
      "name": "tokenByIndex",
      "outputs": [
        {
          "name": "",
          "type": "uint256"
        }
      ],
      "payable": false,
      "stateMutability": "view",
      "type": "function"
    },
    {
      "constant": true,
      "inputs": [
        {
          "name": "_tokenId",
          "type": "uint256"
        }
      ],
      "name": "ownerOf",
      "outputs": [
        {
          "name": "",
          "type": "address"
        }
      ],
      "payable": false,
      "stateMutability": "view",
      "type": "function"
    },
    {
      "constant": true,
      "inputs": [
        {
          "name": "_owner",
          "type": "address"
        }
      ],
      "name": "balanceOf",
      "outputs": [
        {
          "name": "",
          "type": "uint256"
        }
      ],
      "payable": false,
      "stateMutability": "view",
      "type": "function"
    },
    {
      "constant": true,
      "inputs": [],
      "name": "symbol",
      "outputs": [
        {
          "name": "",
          "type": "string"
        }
      ],
      "payable": false,
      "stateMutability": "view",
      "type": "function"
    },
    {
      "constant": false,
      "inputs": [
        {
          "name": "_to",
          "type": "address"
        },
        {
          "name": "_approved",
          "type": "bool"
        }
      ],
      "name": "setApprovalForAll",
      "outputs": [],
      "payable": false,
      "stateMutability": "nonpayable",
      "type": "function"
    },
    {
      "constant": false,
      "inputs": [
        {
          "name": "_from",
          "type": "address"
        },
        {
          "name": "_to",
          "type": "address"
        },
        {
          "name": "_tokenId",
          "type": "uint256"
        },
        {
          "name": "_data",
          "type": "bytes"
        }
      ],
      "name": "safeTransferFrom",
      "outputs": [],
      "payable": false,
      "stateMutability": "nonpayable",
      "type": "function"
    },
    {
      "constant": true,
      "inputs": [
        {
          "name": "_tokenId",
          "type": "uint256"
        }
      ],
      "name": "tokenURI",
      "outputs": [
        {
          "name": "",
          "type": "string"
        }
      ],
      "payable": false,
      "stateMutability": "view",
      "type": "function"
    },
    {
      "constant": true,
      "inputs": [
        {
          "name": "_owner",
          "type": "address"
        },
        {
          "name": "_operator",
          "type": "address"
        }
      ],
      "name": "isApprovedForAll",
      "outputs": [
        {
          "name": "",
          "type": "bool"
        }
      ],
      "payable": false,
      "stateMutability": "view",
      "type": "function"
    },
    {
      "inputs": [
        {
          "name": "name_",
          "type": "string"
        },
        {
          "name": "symbol_",
          "type": "string"
        }
      ],
      "payable": false,
      "stateMutability": "nonpayable",
      "type": "constructor"
    },
    {
      "anonymous": false,
      "inputs": [
        {
          "indexed": false,
          "name": "_id",
          "type": "uint256"
        }
      ],
      "name": "Token",
      "type": "event"
    },
    {
      "anonymous": false,
      "inputs": [
        {
          "indexed": false,
          "name": "_id",
          "type": "uint256"
        },
        {
          "indexed": false,
          "name": "_creator",
          "type": "address"
        }
      ],
      "name": "Reward",
      "type": "event"
    },
    {
      "anonymous": false,
      "inputs": [
        {
          "indexed": true,
          "name": "_from",
          "type": "address"
        },
        {
          "indexed": true,
          "name": "_to",
          "type": "address"
        },
        {
          "indexed": false,
          "name": "_tokenId",
          "type": "uint256"
        }
      ],
      "name": "Transfer",
      "type": "event"
    },
    {
      "anonymous": false,
      "inputs": [
        {
          "indexed": true,
          "name": "_owner",
          "type": "address"
        },
        {
          "indexed": true,
          "name": "_approved",
          "type": "address"
        },
        {
          "indexed": false,
          "name": "_tokenId",
          "type": "uint256"
        }
      ],
      "name": "Approval",
      "type": "event"
    },
    {
      "anonymous": false,
      "inputs": [
        {
          "indexed": true,
          "name": "_owner",
          "type": "address"
        },
        {
          "indexed": true,
          "name": "_operator",
          "type": "address"
        },
        {
          "indexed": false,
          "name": "_approved",
          "type": "bool"
        }
      ],
      "name": "ApprovalForAll",
      "type": "event"
    },
    {
      "constant": true,
      "inputs": [
        {
          "name": "_creator",
          "type": "address"
        }
      ],
      "name": "getAllowedRewards",
      "outputs": [
        {
          "name": "",
          "type": "uint256[]"
        }
      ],
      "payable": false,
      "stateMutability": "view",
      "type": "function"
    },
    {
      "constant": true,
      "inputs": [
        {
          "name": "_rewardId",
          "type": "uint256"
        }
      ],
      "name": "getRewardName",
      "outputs": [
        {
          "name": "",
          "type": "string"
        }
      ],
      "payable": false,
      "stateMutability": "view",
      "type": "function"
    },
    {
      "constant": true,
      "inputs": [
        {
          "name": "_tokenId",
          "type": "uint256"
        }
      ],
      "name": "getTokenReward",
      "outputs": [
        {
          "name": "",
          "type": "uint256"
        }
      ],
      "payable": false,
      "stateMutability": "view",
      "type": "function"
    },
    {
      "constant": true,
      "inputs": [
        {
          "name": "_tokenId",
          "type": "uint256"
        }
      ],
      "name": "getTokenCreator",
      "outputs": [
        {
          "name": "",
          "type": "address"
        }
      ],
      "payable": false,
      "stateMutability": "view",
      "type": "function"
    },
    {
      "constant": true,
      "inputs": [
        {
          "name": "_game",
          "type": "address"
        }
      ],
      "name": "getGameName",
      "outputs": [
        {
          "name": "",
          "type": "string"
        }
      ],
      "payable": false,
      "stateMutability": "view",
      "type": "function"
    },
    {
      "constant": false,
      "inputs": [
        {
          "name": "_recipient",
          "type": "address"
        },
        {
          "name": "_rewardId",
          "type": "uint256"
        }
      ],
      "name": "giveReward",
      "outputs": [
        {
          "name": "",
          "type": "bool"
        }
      ],
      "payable": false,
      "stateMutability": "nonpayable",
      "type": "function"
    },
    {
      "constant": false,
      "inputs": [
        {
          "name": "_name",
          "type": "string"
        }
      ],
      "name": "createReward",
      "outputs": [
        {
          "name": "",
          "type": "uint256"
        }
      ],
      "payable": false,
      "stateMutability": "nonpayable",
      "type": "function"
    },
    {
      "constant": false,
      "inputs": [
        {
          "name": "_rewardId",
          "type": "uint256"
        }
      ],
      "name": "allowReward",
      "outputs": [
        {
          "name": "",
          "type": "bool"
        }
      ],
      "payable": false,
      "stateMutability": "nonpayable",
      "type": "function"
    },
    {
      "constant": false,
      "inputs": [
        {
          "name": "_name",
          "type": "string"
        }
      ],
      "name": "createAndAllowReward",
      "outputs": [
        {
          "name": "",
          "type": "bool"
        }
      ],
      "payable": false,
      "stateMutability": "nonpayable",
      "type": "function"
    },
    {
      "constant": false,
      "inputs": [
        {
          "name": "_name",
          "type": "string"
        }
      ],
      "name": "registerGame",
      "outputs": [
        {
          "name": "",
          "type": "bool"
        }
      ],
      "payable": false,
      "stateMutability": "nonpayable",
      "type": "function"
    }
  ],
  "bytecode": "0x6080604052600060105560006011553480156200001b57600080fd5b506040516200285f3803806200285f8339810180604052810190808051820192919060200180518201929190505050818181600490805190602001906200006492919062000088565b5080600590805190602001906200007d92919062000088565b505050505062000137565b828054600181600116156101000203166002900490600052602060002090601f016020900481019282601f10620000cb57805160ff1916838001178555620000fc565b82800160010185558215620000fc579182015b82811115620000fb578251825591602001919060010190620000de565b5b5090506200010b91906200010f565b5090565b6200013491905b808211156200013057600081600090555060010162000116565b5090565b90565b61271880620001476000396000f300608060405260043610610154576000357c0100000000000000000000000000000000000000000000000000000000900463ffffffff168063041456f31461015957806306fdde031461019e578063081812fc1461022e578063095ea7b31461029b5780630eb452a6146102e857806318160ddd1461032957806323b872dd146103545780632f745c59146103c15780633f270f4c1461042257806342842e0e146104a35780634a4a686b146105105780634f558e79146105a85780634f6ccce7146105ed5780636352211e1461062e5780636e6b1ce21461069b57806370a082311461071c578063934689a91461077357806395d89b41146107e0578063a22cb46514610870578063b1c7f51e146108bf578063b88d4fde14610965578063c87b56dd14610a18578063ce8ae9f314610abe578063d2ab78b714610b23578063d2cdcfe114610bdf578063e985e9c514610c5c575b600080fd5b34801561016557600080fd5b5061018460048036038101908080359060200190929190505050610cd7565b604051808215151515815260200191505060405180910390f35b3480156101aa57600080fd5b506101b3610d4b565b6040518080602001828103825283818151815260200191508051906020019080838360005b838110156101f35780820151818401526020810190506101d8565b50505050905090810190601f1680156102205780820380516001836020036101000a031916815260200191505b509250505060405180910390f35b34801561023a57600080fd5b5061025960048036038101908080359060200190929190505050610ded565b604051808273ffffffffffffffffffffffffffffffffffffffff1673ffffffffffffffffffffffffffffffffffffffff16815260200191505060405180910390f35b3480156102a757600080fd5b506102e6600480360381019080803573ffffffffffffffffffffffffffffffffffffffff16906020019092919080359060200190929190505050610e2a565b005b3480156102f457600080fd5b5061031360048036038101908080359060200190929190505050610ff0565b6040518082815260200191505060405180910390f35b34801561033557600080fd5b5061033e61100d565b6040518082815260200191505060405180910390f35b34801561036057600080fd5b506103bf600480360381019080803573ffffffffffffffffffffffffffffffffffffffff169060200190929190803573ffffffffffffffffffffffffffffffffffffffff1690602001909291908035906020019092919050505061101a565b005b3480156103cd57600080fd5b5061040c600480360381019080803573ffffffffffffffffffffffffffffffffffffffff16906020019092919080359060200190929190505050611131565b6040518082815260200191505060405180910390f35b34801561042e57600080fd5b50610489600480360381019080803590602001908201803590602001908080601f01602080910402602001604051908101604052809392919081815260200183838082843782019150505050505091929192905050506111a8565b604051808215151515815260200191505060405180910390f35b3480156104af57600080fd5b5061050e600480360381019080803573ffffffffffffffffffffffffffffffffffffffff169060200190929190803573ffffffffffffffffffffffffffffffffffffffff169060200190929190803590602001909291905050506111c2565b005b34801561051c57600080fd5b50610551600480360381019080803573ffffffffffffffffffffffffffffffffffffffff1690602001909291905050506111fa565b6040518080602001828103825283818151815260200191508051906020019060200280838360005b83811015610594578082015181840152602081019050610579565b505050509050019250505060405180910390f35b3480156105b457600080fd5b506105d360048036038101908080359060200190929190505050611291565b604051808215151515815260200191505060405180910390f35b3480156105f957600080fd5b5061061860048036038101908080359060200190929190505050611302565b6040518082815260200191505060405180910390f35b34801561063a57600080fd5b506106596004803603810190808035906020019092919050505061133a565b604051808273ffffffffffffffffffffffffffffffffffffffff1673ffffffffffffffffffffffffffffffffffffffff16815260200191505060405180910390f35b3480156106a757600080fd5b50610702600480360381019080803590602001908201803590602001908080601f01602080910402602001604051908101604052809392919081815260200183838082843782019150505050505091929192905050506113b7565b604051808215151515815260200191505060405180910390f35b34801561072857600080fd5b5061075d600480360381019080803573ffffffffffffffffffffffffffffffffffffffff169060200190929190505050611416565b6040518082815260200191505060405180910390f35b34801561077f57600080fd5b5061079e6004803603810190808035906020019092919050505061149a565b604051808273ffffffffffffffffffffffffffffffffffffffff1673ffffffffffffffffffffffffffffffffffffffff16815260200191505060405180910390f35b3480156107ec57600080fd5b506107f56114d7565b6040518080602001828103825283818151815260200191508051906020019080838360005b8381101561083557808201518184015260208101905061081a565b50505050905090810190601f1680156108625780820380516001836020036101000a031916815260200191505b509250505060405180910390f35b34801561087c57600080fd5b506108bd600480360381019080803573ffffffffffffffffffffffffffffffffffffffff169060200190929190803515159060200190929190505050611579565b005b3480156108cb57600080fd5b506108ea600480360381019080803590602001909291905050506116b5565b6040518080602001828103825283818151815260200191508051906020019080838360005b8381101561092a57808201518184015260208101905061090f565b50505050905090810190601f1680156109575780820380516001836020036101000a031916815260200191505b509250505060405180910390f35b34801561097157600080fd5b50610a16600480360381019080803573ffffffffffffffffffffffffffffffffffffffff169060200190929190803573ffffffffffffffffffffffffffffffffffffffff16906020019092919080359060200190929190803590602001908201803590602001908080601f016020809104026020016040519081016040528093929190818152602001838380828437820191505050505050919291929050505061176a565b005b348015610a2457600080fd5b50610a43600480360381019080803590602001909291905050506117a9565b6040518080602001828103825283818151815260200191508051906020019080838360005b83811015610a83578082015181840152602081019050610a68565b50505050905090810190601f168015610ab05780820380516001836020036101000a031916815260200191505b509250505060405180910390f35b348015610aca57600080fd5b50610b09600480360381019080803573ffffffffffffffffffffffffffffffffffffffff16906020019092919080359060200190929190505050611872565b604051808215151515815260200191505060405180910390f35b348015610b2f57600080fd5b50610b64600480360381019080803573ffffffffffffffffffffffffffffffffffffffff169060200190929190505050611942565b6040518080602001828103825283818151815260200191508051906020019080838360005b83811015610ba4578082015181840152602081019050610b89565b50505050905090810190601f168015610bd15780820380516001836020036101000a031916815260200191505b509250505060405180910390f35b348015610beb57600080fd5b50610c46600480360381019080803590602001908201803590602001908080601f0160208091040260200160405190810160405280939291908181526020018383808284378201915050505050509192919290505050611a23565b6040518082815260200191505060405180910390f35b348015610c6857600080fd5b50610cbd600480360381019080803573ffffffffffffffffffffffffffffffffffffffff169060200190929190803573ffffffffffffffffffffffffffffffffffffffff169060200190929190505050611ad7565b604051808215151515815260200191505060405180910390f35b6000600e60003373ffffffffffffffffffffffffffffffffffffffff1673ffffffffffffffffffffffffffffffffffffffff16815260200190815260200160002082908060018154018082558091505090600182039060005260206000200160009091929091909150555060019050919050565b606060048054600181600116156101000203166002900480601f016020809104026020016040519081016040528092919081815260200182805460018160011615610100020316600290048015610de35780601f10610db857610100808354040283529160200191610de3565b820191906000526020600020905b815481529060010190602001808311610dc657829003601f168201915b5050505050905090565b60006001600083815260200190815260200160002060009054906101000a900473ffffffffffffffffffffffffffffffffffffffff169050919050565b6000610e358261133a565b90508073ffffffffffffffffffffffffffffffffffffffff168373ffffffffffffffffffffffffffffffffffffffff1614151515610e7257600080fd5b8073ffffffffffffffffffffffffffffffffffffffff163373ffffffffffffffffffffffffffffffffffffffff161480610eb25750610eb18133611ad7565b5b1515610ebd57600080fd5b600073ffffffffffffffffffffffffffffffffffffffff16610ede83610ded565b73ffffffffffffffffffffffffffffffffffffffff16141580610f2e5750600073ffffffffffffffffffffffffffffffffffffffff168373ffffffffffffffffffffffffffffffffffffffff1614155b15610feb57826001600084815260200190815260200160002060006101000a81548173ffffffffffffffffffffffffffffffffffffffff021916908373ffffffffffffffffffffffffffffffffffffffff1602179055508273ffffffffffffffffffffffffffffffffffffffff168173ffffffffffffffffffffffffffffffffffffffff167f8c5be1e5ebec7d5bd14f71427d1e84f3dd0314c0f7b2291e5b200ac8c7c3b925846040518082815260200191505060405180910390a35b505050565b6000600c6000838152602001908152602001600020549050919050565b6000600880549050905090565b806110253382611b6b565b151561103057600080fd5b600073ffffffffffffffffffffffffffffffffffffffff168473ffffffffffffffffffffffffffffffffffffffff161415151561106c57600080fd5b600073ffffffffffffffffffffffffffffffffffffffff168373ffffffffffffffffffffffffffffffffffffffff16141515156110a857600080fd5b6110b28483611c00565b6110bc8483611d69565b6110c68383611f81565b8273ffffffffffffffffffffffffffffffffffffffff168473ffffffffffffffffffffffffffffffffffffffff167fddf252ad1be2c89b69c2b068fc378daa952ba7f163c4a11628f55a4df523b3ef846040518082815260200191505060405180910390a350505050565b600061113c83611416565b8210151561114957600080fd5b600660008473ffffffffffffffffffffffffffffffffffffffff1673ffffffffffffffffffffffffffffffffffffffff1681526020019081526020016000208281548110151561119557fe5b9060005260206000200154905092915050565b60006111bb6111b683611a23565b610cd7565b9050919050565b806111cd3382611b6b565b15156111d857600080fd5b6111f4848484602060405190810160405280600081525061176a565b50505050565b6060600e60008373ffffffffffffffffffffffffffffffffffffffff1673ffffffffffffffffffffffffffffffffffffffff16815260200190815260200160002080548060200260200160405190810160405280929190818152602001828054801561128557602002820191906000526020600020905b815481526020019060010190808311611271575b50505050509050919050565b60008060008084815260200190815260200160002060009054906101000a900473ffffffffffffffffffffffffffffffffffffffff169050600073ffffffffffffffffffffffffffffffffffffffff168173ffffffffffffffffffffffffffffffffffffffff161415915050919050565b600061130c61100d565b8210151561131957600080fd5b60088281548110151561132857fe5b90600052602060002001549050919050565b60008060008084815260200190815260200160002060009054906101000a900473ffffffffffffffffffffffffffffffffffffffff169050600073ffffffffffffffffffffffffffffffffffffffff168173ffffffffffffffffffffffffffffffffffffffff16141515156113ae57600080fd5b80915050919050565b600081600f60003373ffffffffffffffffffffffffffffffffffffffff1673ffffffffffffffffffffffffffffffffffffffff168152602001908152602001600020908051906020019061140c92919061261b565b5060019050919050565b60008073ffffffffffffffffffffffffffffffffffffffff168273ffffffffffffffffffffffffffffffffffffffff161415151561145357600080fd5b600260008373ffffffffffffffffffffffffffffffffffffffff1673ffffffffffffffffffffffffffffffffffffffff168152602001908152602001600020549050919050565b6000600b600083815260200190815260200160002060009054906101000a900473ffffffffffffffffffffffffffffffffffffffff169050919050565b606060058054600181600116156101000203166002900480601f01602080910402602001604051908101604052809291908181526020018280546001816001161561010002031660029004801561156f5780601f106115445761010080835404028352916020019161156f565b820191906000526020600020905b81548152906001019060200180831161155257829003601f168201915b5050505050905090565b3373ffffffffffffffffffffffffffffffffffffffff168273ffffffffffffffffffffffffffffffffffffffff16141515156115b457600080fd5b80600360003373ffffffffffffffffffffffffffffffffffffffff1673ffffffffffffffffffffffffffffffffffffffff16815260200190815260200160002060008473ffffffffffffffffffffffffffffffffffffffff1673ffffffffffffffffffffffffffffffffffffffff16815260200190815260200160002060006101000a81548160ff0219169083151502179055508173ffffffffffffffffffffffffffffffffffffffff163373ffffffffffffffffffffffffffffffffffffffff167f17307eab39ab6107e8899845ad3d59bd9653f200f220920489ca2b5937696c3183604051808215151515815260200191505060405180910390a35050565b6060600d60008381526020019081526020016000208054600181600116156101000203166002900480601f01602080910402602001604051908101604052809291908181526020018280546001816001161561010002031660029004801561175e5780601f106117335761010080835404028352916020019161175e565b820191906000526020600020905b81548152906001019060200180831161174157829003601f168201915b50505050509050919050565b816117753382611b6b565b151561178057600080fd5b61178b85858561101a565b61179785858585612058565b15156117a257600080fd5b5050505050565b60606117b482611291565b15156117bf57600080fd5b600a60008381526020019081526020016000208054600181600116156101000203166002900480601f0160208091040260200160405190810160405280929190818152602001828054600181600116156101000203166002900480156118665780601f1061183b57610100808354040283529160200191611866565b820191906000526020600020905b81548152906001019060200180831161184957829003601f168201915b50505050509050919050565b6000600160106000828254019250508190555033600b6000601054815260200190815260200160002060006101000a81548173ffffffffffffffffffffffffffffffffffffffff021916908373ffffffffffffffffffffffffffffffffffffffff16021790555081600c60006010548152602001908152602001600020819055506118ff83601054612246565b7f6241bfd1621fd103822b6993a8a36a4eb8bae72f66ab739b952a2f78eecefc776010546040518082815260200191505060405180910390a16001905092915050565b6060600f60008373ffffffffffffffffffffffffffffffffffffffff1673ffffffffffffffffffffffffffffffffffffffff1681526020019081526020016000208054600181600116156101000203166002900480601f016020809104026020016040519081016040528092919081815260200182805460018160011615610100020316600290048015611a175780601f106119ec57610100808354040283529160200191611a17565b820191906000526020600020905b8154815290600101906020018083116119fa57829003601f168201915b50505050509050919050565b6000600160116000828254019250508190555081600d600060115481526020019081526020016000209080519060200190611a5f92919061261b565b507f87638f9e82f004fbb8720a22ecbe5433f32c8400acf08fd57bb7688e5177c7ab60115433604051808381526020018273ffffffffffffffffffffffffffffffffffffffff1673ffffffffffffffffffffffffffffffffffffffff1681526020019250505060405180910390a16011549050919050565b6000600360008473ffffffffffffffffffffffffffffffffffffffff1673ffffffffffffffffffffffffffffffffffffffff16815260200190815260200160002060008373ffffffffffffffffffffffffffffffffffffffff1673ffffffffffffffffffffffffffffffffffffffff16815260200190815260200160002060009054906101000a900460ff16905092915050565b600080611b778361133a565b90508073ffffffffffffffffffffffffffffffffffffffff168473ffffffffffffffffffffffffffffffffffffffff161480611be657508373ffffffffffffffffffffffffffffffffffffffff16611bce84610ded565b73ffffffffffffffffffffffffffffffffffffffff16145b80611bf75750611bf68185611ad7565b5b91505092915050565b8173ffffffffffffffffffffffffffffffffffffffff16611c208261133a565b73ffffffffffffffffffffffffffffffffffffffff16141515611c4257600080fd5b600073ffffffffffffffffffffffffffffffffffffffff166001600083815260200190815260200160002060009054906101000a900473ffffffffffffffffffffffffffffffffffffffff1673ffffffffffffffffffffffffffffffffffffffff16141515611d655760006001600083815260200190815260200160002060006101000a81548173ffffffffffffffffffffffffffffffffffffffff021916908373ffffffffffffffffffffffffffffffffffffffff160217905550600073ffffffffffffffffffffffffffffffffffffffff168273ffffffffffffffffffffffffffffffffffffffff167f8c5be1e5ebec7d5bd14f71427d1e84f3dd0314c0f7b2291e5b200ac8c7c3b925836040518082815260200191505060405180910390a35b5050565b6000806000611d78858561229d565b60076000858152602001908152602001600020549250611de46001600660008873ffffffffffffffffffffffffffffffffffffffff1673ffffffffffffffffffffffffffffffffffffffff168152602001908152602001600020805490506123cb90919063ffffffff16565b9150600660008673ffffffffffffffffffffffffffffffffffffffff1673ffffffffffffffffffffffffffffffffffffffff16815260200190815260200160002082815481101515611e3257fe5b9060005260206000200154905080600660008773ffffffffffffffffffffffffffffffffffffffff1673ffffffffffffffffffffffffffffffffffffffff16815260200190815260200160002084815481101515611e8c57fe5b90600052602060002001819055506000600660008773ffffffffffffffffffffffffffffffffffffffff1673ffffffffffffffffffffffffffffffffffffffff16815260200190815260200160002083815481101515611ee857fe5b9060005260206000200181905550600660008673ffffffffffffffffffffffffffffffffffffffff1673ffffffffffffffffffffffffffffffffffffffff168152602001908152602001600020805480919060019003611f48919061269b565b50600060076000868152602001908152602001600020819055508260076000838152602001908152602001600020819055505050505050565b6000611f8d83836123e4565b600660008473ffffffffffffffffffffffffffffffffffffffff1673ffffffffffffffffffffffffffffffffffffffff168152602001908152602001600020805490509050600660008473ffffffffffffffffffffffffffffffffffffffff1673ffffffffffffffffffffffffffffffffffffffff168152602001908152602001600020829080600181540180825580915050906001820390600052602060002001600090919290919091505550806007600084815260200190815260200160002081905550505050565b60008061207a8573ffffffffffffffffffffffffffffffffffffffff1661253c565b1515612089576001915061223d565b8473ffffffffffffffffffffffffffffffffffffffff1663f0b9e5ba8786866040518463ffffffff167c0100000000000000000000000000000000000000000000000000000000028152600401808473ffffffffffffffffffffffffffffffffffffffff1673ffffffffffffffffffffffffffffffffffffffff16815260200183815260200180602001828103825283818151815260200191508051906020019080838360005b8381101561214b578082015181840152602081019050612130565b50505050905090810190601f1680156121785780820380516001836020036101000a031916815260200191505b50945050505050602060405180830381600087803b15801561219957600080fd5b505af11580156121ad573d6000803e3d6000fd5b505050506040513d60208110156121c357600080fd5b8101908080519060200190929190505050905063f0b9e5ba7c0100000000000000000000000000000000000000000000000000000000027bffffffffffffffffffffffffffffffffffffffffffffffffffffffff1916817bffffffffffffffffffffffffffffffffffffffffffffffffffffffff19161491505b50949350505050565b612250828261254f565b600880549050600960008381526020019081526020016000208190555060088190806001815401808255809150509060018203906000526020600020016000909192909190915055505050565b8173ffffffffffffffffffffffffffffffffffffffff166122bd8261133a565b73ffffffffffffffffffffffffffffffffffffffff161415156122df57600080fd5b6123326001600260008573ffffffffffffffffffffffffffffffffffffffff1673ffffffffffffffffffffffffffffffffffffffff168152602001908152602001600020546123cb90919063ffffffff16565b600260008473ffffffffffffffffffffffffffffffffffffffff1673ffffffffffffffffffffffffffffffffffffffff16815260200190815260200160002081905550600080600083815260200190815260200160002060006101000a81548173ffffffffffffffffffffffffffffffffffffffff021916908373ffffffffffffffffffffffffffffffffffffffff1602179055505050565b60008282111515156123d957fe5b818303905092915050565b600073ffffffffffffffffffffffffffffffffffffffff1660008083815260200190815260200160002060009054906101000a900473ffffffffffffffffffffffffffffffffffffffff1673ffffffffffffffffffffffffffffffffffffffff1614151561245157600080fd5b8160008083815260200190815260200160002060006101000a81548173ffffffffffffffffffffffffffffffffffffffff021916908373ffffffffffffffffffffffffffffffffffffffff1602179055506124f56001600260008573ffffffffffffffffffffffffffffffffffffffff1673ffffffffffffffffffffffffffffffffffffffff168152602001908152602001600020546125ff90919063ffffffff16565b600260008473ffffffffffffffffffffffffffffffffffffffff1673ffffffffffffffffffffffffffffffffffffffff168152602001908152602001600020819055505050565b600080823b905060008111915050919050565b600073ffffffffffffffffffffffffffffffffffffffff168273ffffffffffffffffffffffffffffffffffffffff161415151561258b57600080fd5b6125958282611f81565b8173ffffffffffffffffffffffffffffffffffffffff16600073ffffffffffffffffffffffffffffffffffffffff167fddf252ad1be2c89b69c2b068fc378daa952ba7f163c4a11628f55a4df523b3ef836040518082815260200191505060405180910390a35050565b6000818301905082811015151561261257fe5b80905092915050565b828054600181600116156101000203166002900490600052602060002090601f016020900481019282601f1061265c57805160ff191683800117855561268a565b8280016001018555821561268a579182015b8281111561268957825182559160200191906001019061266e565b5b50905061269791906126c7565b5090565b8154818355818111156126c2578183600052602060002091820191016126c191906126c7565b5b505050565b6126e991905b808211156126e55760008160009055506001016126cd565b5090565b905600a165627a7a72305820c8ca536385a694c299e43626507d7ab0dcc4ab584854ead6f76d7b396c9680390029",
  "source": "pragma solidity ^0.4.21;\n\nimport \"../node_modules/openzeppelin-solidity/contracts/token/ERC721/ERC721Token.sol\";\n\ncontract MissionTracker is ERC721Token {\n    mapping (uint256 => address) tokenToCreator;\n    mapping (uint256 => uint256) tokenToRewardId;\n    mapping (uint256 => string) rewardIdToName;\n    mapping (address => uint256[]) creatorToAllowedRewards;\n    mapping (address => string) gameAddressToName;\n    \n    uint256 internal _nextTokenId = 0;\n    uint256 internal _nextRewardId = 0;\n\n    event Token(uint256 _id);\n    event Reward(uint256 _id, address _creator);\n\n    constructor(string name_, string symbol_) ERC721Token(name_, symbol_) {}\n\n    function getAllowedRewards(address _creator) public view returns (uint256[]) {\n        return creatorToAllowedRewards[_creator];\n    }\n\n    function getRewardName(uint256 _rewardId) public view returns (string) {\n        return rewardIdToName[_rewardId];\n    }\n\n    function getTokenReward(uint256 _tokenId) public view returns (uint256) {\n        return tokenToRewardId[_tokenId];\n    }\n\n    function getTokenCreator(uint256 _tokenId) public view returns (address) {\n        return tokenToCreator[_tokenId];\n    }\n\n    function getGameName(address _game) public view returns (string) {\n        return gameAddressToName[_game];\n    }\n\n    function giveReward(address _recipient, uint256 _rewardId) public returns (bool) {\n        _nextTokenId += 1;\n        tokenToCreator[_nextTokenId] = msg.sender;\n        tokenToRewardId[_nextTokenId] = _rewardId;\n        super._mint(_recipient, _nextTokenId);\n        emit Token(_nextTokenId);\n        return true;\n    }\n\n    function createReward(string _name) public returns (uint256) {\n        _nextRewardId += 1;\n        rewardIdToName[_nextRewardId] = _name;\n        emit Reward(_nextRewardId, msg.sender);\n        return _nextRewardId;\n    }\n\n    function allowReward(uint256 _rewardId) public returns (bool) {\n        creatorToAllowedRewards[msg.sender].push(_rewardId);\n        return true;\n    }\n\n    function createAndAllowReward(string _name) public returns (bool) {\n        return allowReward(createReward(_name));\n    }\n\n    function registerGame(string _name) public returns (bool) {\n        gameAddressToName[msg.sender] = _name;\n        return true;\n    }\n}\n",
  "sourcePath": "/Users/ryan/Desktop/Github/mt/cs359b-mission-tracker/contracts/MissionTracker.sol",
  "compiler": {
    "name": "solc",
    "version": "0.4.23+commit.124ca40d.Emscripten.clang"
  },
  "schemaVersion": "2.0.0",
  "updatedAt": "2018-06-10T21:51:07.724Z"
}