{
  "contractName": "MissionTracker",
  "abi": [
    {
      "constant": false,
      "inputs": [
        {
          "name": "_reviewer",
          "type": "uint256"
        },
        {
          "name": "_checkpoint",
          "type": "uint256"
        }
      ],
      "name": "setCheckpointComplete",
      "outputs": [
        {
          "name": "success",
          "type": "bool"
        }
      ],
      "payable": false,
      "stateMutability": "nonpayable",
      "type": "function"
    },
    {
      "constant": true,
      "inputs": [
        {
          "name": "_reviewer",
          "type": "uint256"
        },
        {
          "name": "_game",
          "type": "address"
        },
        {
          "name": "_checkpoint",
          "type": "uint256"
        }
      ],
      "name": "getCheckpointComplete",
      "outputs": [
        {
          "name": "complete",
          "type": "bool"
        }
      ],
      "payable": false,
      "stateMutability": "view",
      "type": "function"
    },
    {
      "constant": false,
      "inputs": [
        {
          "name": "_checkpointName",
          "type": "string"
        }
      ],
      "name": "addGameCheckpoint",
      "outputs": [
        {
          "name": "success",
          "type": "bool"
        }
      ],
      "payable": false,
      "stateMutability": "nonpayable",
      "type": "function"
    },
    {
      "constant": true,
      "inputs": [
        {
          "name": "_game",
          "type": "address"
        },
        {
          "name": "_checkpoint",
          "type": "uint256"
        }
      ],
      "name": "getGameCheckpointName",
      "outputs": [
        {
          "name": "name",
          "type": "string"
        }
      ],
      "payable": false,
      "stateMutability": "view",
      "type": "function"
    },
    {
      "constant": true,
      "inputs": [
        {
          "name": "_game",
          "type": "address"
        }
      ],
      "name": "getGameCheckpointCount",
      "outputs": [
        {
          "name": "checkpointCount",
          "type": "uint256"
        }
      ],
      "payable": false,
      "stateMutability": "view",
      "type": "function"
    }
  ],
  "bytecode": "0x608060405234801561001057600080fd5b50610669806100206000396000f30060806040526004361061006d576000357c0100000000000000000000000000000000000000000000000000000000900463ffffffff1680630c2de865146100725780630cdce283146100c9578063717f6b281461013857806396f595c4146101fe578063b419fc0d1461024d575b600080fd5b34801561007e57600080fd5b506100b3600480360381019080803573ffffffffffffffffffffffffffffffffffffffff1690602001909291905050506102ce565b6040518082815260200191505060405180910390f35b3480156100d557600080fd5b5061011e60048036038101908080359060200190929190803573ffffffffffffffffffffffffffffffffffffffff1690602001909291908035906020019092919050505061031a565b604051808215151515815260200191505060405180910390f35b34801561014457600080fd5b50610183600480360381019080803573ffffffffffffffffffffffffffffffffffffffff16906020019092919080359060200190929190505050610393565b6040518080602001828103825283818151815260200191508051906020019080838360005b838110156101c35780820151818401526020810190506101a8565b50505050905090810190601f1680156101f05780820380516001836020036101000a031916815260200191505b509250505060405180910390f35b34801561020a57600080fd5b50610233600480360381019080803590602001909291908035906020019092919050505061048c565b604051808215151515815260200191505060405180910390f35b34801561025957600080fd5b506102b4600480360381019080803590602001908201803590602001908080601f0160208091040260200160405190810160405280939291908181526020018383808284378201915050505050509192919290505050610511565b604051808215151515815260200191505060405180910390f35b6000600160008373ffffffffffffffffffffffffffffffffffffffff1673ffffffffffffffffffffffffffffffffffffffff168152602001908152602001600020805490509050919050565b600080600085815260200190815260200160002060008473ffffffffffffffffffffffffffffffffffffffff1673ffffffffffffffffffffffffffffffffffffffff168152602001908152602001600020600083815260200190815260200160002060009054906101000a900460ff1690509392505050565b6060600160008473ffffffffffffffffffffffffffffffffffffffff1673ffffffffffffffffffffffffffffffffffffffff168152602001908152602001600020828154811015156103e157fe5b906000526020600020018054600181600116156101000203166002900480601f01602080910402602001604051908101604052809291908181526020018280546001816001161561010002031660029004801561047f5780601f106104545761010080835404028352916020019161047f565b820191906000526020600020905b81548152906001019060200180831161046257829003601f168201915b5050505050905092915050565b6000600160008085815260200190815260200160002060003373ffffffffffffffffffffffffffffffffffffffff1673ffffffffffffffffffffffffffffffffffffffff168152602001908152602001600020600084815260200190815260200160002060006101000a81548160ff0219169083151502179055506001905092915050565b6000600160003373ffffffffffffffffffffffffffffffffffffffff1673ffffffffffffffffffffffffffffffffffffffff16815260200190815260200160002082908060018154018082558091505090600182039060005260206000200160009091929091909150908051906020019061058d929190610598565b505060019050919050565b828054600181600116156101000203166002900490600052602060002090601f016020900481019282601f106105d957805160ff1916838001178555610607565b82800160010185558215610607579182015b828111156106065782518255916020019190600101906105eb565b5b5090506106149190610618565b5090565b61063a91905b8082111561063657600081600090555060010161061e565b5090565b905600a165627a7a7230582060344e955979d0355078fce0f837298311789bfda65a007435a193d379408d270029",
  "source": "pragma solidity ^0.4.21;\n\ncontract MissionTracker {\n    // Maps reviewer ID -> game address -> checkpoint ID -> complete\n    mapping (uint256 => mapping (address => mapping (uint256 => bool))) completedCheckpoints;\n    // Maps game address -> checkpoint names (aligned with checkpoint IDs)\n    mapping (address => string[]) allCheckpoints;\n\n    /**\n    Records on the blockchain that a reviewer has completed a game's checkpoint.\n\n    The game is identified by the address of the function caller; that is, the game must have a \n    wallet which calls the function to register the checkpoint. This ensures that only the game \n    itself can record checkpoints.\n\n    Args:\n        _reviewer: the ID of the reviewer who completed the checkpoint. The ID should be mapped to\n            the reviewer's identity externally.\n        _checkpoint: the index of the checkpoint in the game's `allCheckpoints` entry.\n     \n     Returns:\n        (bool) whether the operation was successfully performed.\n     */\n    function setCheckpointComplete(uint256 _reviewer, uint256 _checkpoint) public returns (bool success) {\n        completedCheckpoints[_reviewer][msg.sender][_checkpoint] = true;\n        return true;\n    }\n\n    /**\n    Returns whether a given reviewer has a achieved a certain checkpoint in a given game.\n\n    Args:\n        _reviewer: the ID of the reviewer whose completion status is to be checked.\n        _game: the address of the game's wallet.\n        _checkpoint: the index of the checkpoint in the game's `allCheckpoints` entry.\n     \n     Returns:\n        (bool) whether the reviewer has completed the particular checkpoint.\n     */\n    function getCheckpointComplete(uint256 _reviewer, address _game, uint256 _checkpoint) view public returns (bool complete) {\n        return completedCheckpoints[_reviewer][_game][_checkpoint];\n    }\n\n    /**\n    Registers the existence of a new checkpoint for a game.\n\n    It is helpful to have a list of all possible checkpoints for a game, to determine\n    what a reviewer was unable to complete. Games should register all possible checkpoints\n    in advance using this function to build that list.\n\n    Args:\n        _checkpointName: the string name given to the checkpoint by the game creator.\n     \n     Returns:\n        (bool) whether the transaction was successful.\n     */\n    function addGameCheckpoint(string _checkpointName) public returns (bool success) {\n        allCheckpoints[msg.sender].push(_checkpointName);\n        return true;\n    }\n\n    /**\n    Returns the string names of a checkpoint with given numerical ID.\n\n    Args:\n        _game: the address of the game's wallet.\n        _checkpoint: the numerical ID of the checkpoint.\n\n    Returns:\n        (string) the strings name of the game checkpoint.\n     */\n    function getGameCheckpointName(address _game, uint256 _checkpoint) view public returns (string name) {\n        return allCheckpoints[_game][_checkpoint];\n    }\n\n    /**\n     Returns the number of checkpoints in a particular game.\n\n     This should primarily be used to iterate over the checkpoints of a game to acquire their names and completion status.\n     \n    Args:\n        _game: the address of the game's wallet.\n    \n    Returns:\n        (uint256) the number of checkpoints in the game.\n     */\n    function getGameCheckpointCount(address _game) view public returns (uint256 checkpointCount) {\n        return allCheckpoints[_game].length;\n    }\n}\n",
  "sourcePath": "/Users/ryan/Desktop/Github/mt/cs359b-mission-tracker/contracts/MissionTracker.sol",
  "compiler": {
    "name": "solc",
    "version": "0.4.23+commit.124ca40d.Emscripten.clang"
  },
  "schemaVersion": "2.0.0",
  "updatedAt": "2018-05-13T08:14:58.440Z"
}